:020000040800F2
:1000000040140020C1010008730300086F030008BA
:1000100071030008CF020008FD070008000000007F
:10002000000000000000000000000000F9040008CB
:10003000D10200080000000019040008D1050008E2
:10004000DB010008DB010008DB010008DB01000820
:10005000DB010008DB010008DB010008DB01000810
:10006000DB010008DB010008DB010008DB01000800
:10007000DB010008DB010008DB010008DB010008F0
:10008000DB010008DB010008DB010008DB010008E0
:10009000DB010008DB010008DB010008DB010008D0
:1000A000DB010008DB010008DB010008DB010008C0
:1000B000DB010008DB010008DB010008DB010008B0
:1000C000DB010008DB010008DB010008DB010008A0
:1000D000DB01000831060008DB010008DB01000835
:1000E000DB010008DB010008DB010008DB01000880
:1000F000DB010008DB010008DB010008DB01000870
:10010000DB010008DB010008DB010008DB0100085F
:10011000DB010008DB010008DB010008DB0100084F
:10012000DB010008DB010008DB010008DB0100083F
:10013000DB010008DB010008DB010008DB0100082F
:10014000DB010008DB010008DB010008DB0100081F
:10015000DB010008DB010008DB010008DB0100080F
:10016000DB010008DB010008DB010008DB010008FF
:10017000DB010008DB010008DB010008DB010008EF
:10018000DB010008DB010008DB010008DB010008DF
:10019000DB010008DB010008DB010008DB010008CF
:1001A000DB010008DB010008DB010008DFF80CD0F0
:1001B00000F05CF800480047790E00084014002069
:1001C0000648804706480047FEE7FEE7FEE7FEE7F1
:1001D000FEE7FEE7FEE7FEE7FEE7FEE7D5050008DF
:1001E000AD010008D2B201E000F8012B491EFBD29C
:1001F00070470022F6E710B513460A460446194632
:10020000FFF7F0FF204610BD2DE9F05F0546002006
:1002100092469B4688460646814640241BE0284677
:1002200041464746224600F042F853465A46C01A15
:10023000914110D311461846224600F029F82D1A94
:1002400067EB01084F4622460120002100F020F80C
:1002500017EB00094E41201EA4F10104DFDC4846E3
:1002600031462A464346BDE8F09F0000064C074D44
:1002700006E0E06840F0010394E807009847103476
:10028000AC42F6D3FFF796FFD8100008F81000082C
:10029000202A04DB203A00FA02F100207047914046
:1002A000C2F1200320FA03F3194390407047202A3B
:1002B00004DB203A21FA02F00021704721FA02F310
:1002C000D040C2F120029140084319467047FEE732
:1002D00070472DE9F041002201274FF0030C07FA87
:1002E00002F50B682B40AB422CD1066853000CFA88
:1002F00003F4A64306600E79D0F800809E4046EADB
:10030000080606600E79012E01D0022E12D18668F1
:10031000A64386604E79D0F808809E4046EA0806DB
:1003200086604668AE43466045688E799640B6B2B0
:1003300035434560C568A543C560CC799C40C3681A
:100340001C43C460521C102AC9D3BDE8F08110B50B
:100350004B07DB0E9A40C90800EB8100016A0F24AD
:100360009C40A1430162016A1143016210BDFEE796
:10037000FEE7704708B54FF4A06000F043F8252071
:100380008DF8000001208DF801008DF802008DF835
:100390000300684600F002F808BD000030B50F23E6
:1003A000C27801250178002A1FD0154A126802F48C
:1003B000E062C2F5E062C2F30722C2F10404D34056
:1003C0004278A24084781C401443220101F1E021CC
:1003D00081F80024007800F01F018D404009800062
:1003E00000F1E020C0F8005130BD01F01F00854051
:1003F0004809800000F1E020C0F8805130BD0000C5
:100400000CED00E002490843024908607047000013
:100410000000FA050CED00E070470000054A0029D5
:1004200003D0116801431160704711688143116066
:100430007047000030380240054A002903D0116897
:1004400001431160704711688143116070470000DB
:100450004438024070B5244B196801F00C01234C5C
:1004600000291ED0224E04291DD008291DD0046069
:10047000196801F0F00109091E4A545C0168E14065
:1004800041601C6804F4E054A40A145D21FA04F4E9
:1004900084601B6803F460435B0BD25CD140C16095
:1004A00070BD0460E4E70660E2E70F4A121F1168BE
:1004B000C1F38055116801F03F0135B1B6FBF1F190
:1004C0001468C4F38814614305E0B4FBF1F11468C7
:1004D000C4F3881461431268C2F30142521C5200F3
:1004E000B1FBF2F10160C3E7083802400024F400D8
:1004F00040787D0100000020704700001CB50021FD
:10050000019100912E4A106840F4803010604FF441
:10051000A043106800F4003000900198401C019046
:10052000009810B901989842F3D11068800302D561
:100530000120009000E00091009801283FD1204860
:100540004030016841F0805101601E49086840F464
:10055000404008601A48083003680360036843F4A9
:1005600000430360036843F4A0530360041F164B69
:100570002360136843F08073136013689B01FCD5FC
:100580000A6842F480320A604A68D203FCD50A68DD
:1005900042F400320A604A689203FCD50B4A40F2EA
:1005A00005711160016821F003010160016841F0EB
:1005B000020101600168C1F381010229FAD11CBD69
:1005C0000038024000700040195A4007003C0240C9
:1005D0007047000010B51248016841F470010160D5
:1005E0001048016841F0010101600E4A0021083203
:1005F000116002680C4B1A400260031D0B4A1A601E
:10060000026822F48022026006480C300160FFF785
:1006100075FF03494FF000608039086010BD00008D
:1006200088ED00E000380240FFFFF6FE10300024A5
:1006300070B5164D40F22551284600F03EF8A8B19D
:10064000284600F0D3F8C4B2114800F0E7FB0028B8
:100650001BD0828801688C548188491C89B28180B2
:10066000B1F5006F02D30A4800F0F0FB40F22441DC
:10067000284600F022F8012807D1054800F0E6FBE3
:100680002846BDE8704000F0B1B870BD00100140D0
:1006900024000020002904D0818941F40051818187
:1006A0007047818921F40051818170470246002002
:1006B00012880A4200D00120704770B5002440F62D
:1006C0006A12C1F3421301F01F05012606FA05F272
:1006D000012B0CD0022B0DD0838A1340090A8E40C7
:1006E000008830400BB100B10124204670BD8389E1
:1006F0001340F3E7038A1340F0E710B540F66A139E
:10070000C1F3421301F01F040121A140012B07D0C6
:10071000022B07D014303AB102680A43026010BDC0
:100720000C30F8E71030F6E702688A43026010BD2B
:100730007FB504460D46208A20F44051E8880843DE
:100740002082A08941F20C618843A9882A8911433B
:100750006A8902431143A181A08A20F44071A889CB
:100760000843A0826846FFF775FE1E48844202D007
:100770001D48844201D1039800E00298A189090430
:1007800008D500EBC00101EB001029684900B0FB5F
:10079000F1F007E000EBC00101EB001029688900CF
:1007A000B0FBF1F06422B0FBF2F109010B096FF02C
:1007B00018056B4300EB8300A3891D044FF032033F
:1007C00007D503EBC000B0FBF2F000F007000843D0
:1007D00006E003EB0010B0FBF2F000F00F0008435E
:1007E00020817FBD00100140001401408088C0F3CB
:1007F00008007047C1F3080181807047FEE70000E0
:1008000070B586B001210846FFF708FE01211020CF
:10081000FFF712FE00248DF8164001208DF8170016
:1008200002258DF81550400204908DF814501F4E8B
:1008300004A93046FFF74DFD690204918DF814506C
:1008400004A93046FFF745FD072209213046FFF78E
:100850007EFD07220A213046FFF779FD4FF4E13093
:100860000090ADF804400C20ADF80A00ADF8084047
:10087000ADF80640ADF80C400D4C69462046FFF738
:1008800057FFFFF777FD012240F225512046FFF781
:1008900034FF012240F224412046FFF72EFF0121C0
:1008A0002046FFF7F7FE06B070BD000000000240D2
:1008B0000010014010B504462046FFF79BFF802141
:1008C0002046FFF7F3FE0028F9D010BD70B50646AC
:1008D0000D4600243046295DFFF7ECFF641C285DBF
:1008E0000028F7D140213046FFF7E0FE0028F9D07C
:1008F00070BD00000FB4054B10B503A9044A02985F
:1009000000F018F810BC5DF814FB0000550E00084C
:100910001000002002E008C8121F08C1002AFAD106
:1009200070477047002001E001C1121F002AFBD16F
:10093000704700002DE9FF4F8DB00F460546002699
:1009400006E025280BD0DDE90F1290476D1C761CC0
:1009500028780028F5D111B03046BDE8F08F00248A
:10096000A246A1460122EC4900E0044315F8013FEC
:10097000203B02FA03F00842F7D128782A2810D049
:100980006FF02F022878A0F13001092914D80AEB62
:100990008A0102EB410144F0020400EB010A6D1CE4
:1009A000F0E701CF5FEA000A03D544F40054CAF12E
:1009B000000A44F002046D1C28782E2817D115F87F
:1009C000010F44F004042A280ED06FF02F0228787B
:1009D000A0F1300109290AD809EB890102EB410194
:1009E00000EB01096D1CF2E757F8049B6D1C287899
:1009F0006C280FD006DC4C2817D068280DD06A2848
:100A000014D104E0742810D07A280FD10DE044F4FA
:100A100000140AE044F4801401E044F440146978BE
:100A2000814202D104F580146D1C6D1C2A786E2A57
:100A30001FD00CDC632A31D004DC002A8BD0582A6A
:100A400011D1A3E0642A68D0692A0CD165E0732A29
:100A50002ED004DC6F2A73D0702A04D19BE0752A53
:100A60006FD0782A6ED01046DDE90F129047761CC1
:100A700050E1C4F30250022806D0032809D004280C
:100A800001CF09D0066045E101CFF117C0E900614F
:100A900040E101CF06803DE106703BE117F8040B11
:100AA0008DF8000000208DF80100EB46012003E0E6
:100AB00057F804BB4FF0FF3061074FF0000102D43C
:100AC0000DE008F10101884649450FDA8045F8DB61
:100AD0001BF808100029F4D108E008F1010188464C
:100AE0008142FADB1BF808100029F6D1DDE90F235B
:100AF000AAEB08008146214600F036F9304400EBAD
:100B0000080604E0DDE90F121BF8010B9047B8F16D
:100B10000108F7D221464846F7E00A21C4F3025300
:100B20004FF0000B0891022B04D001CFC117032B0B
:100B300009D00AE0FF1D27F00707F7E8020108E0E7
:100B400032E01FE020E000B2C117042B01D140B217
:100B5000C117031E71F1000307DA4FF0000CD0EB50
:100B60000C006CEB01012D2302E0230504D52B239F
:100B70008DF82430012303E0E30701D02023F7E7B9
:100B8000984658E00A2110E010210EE010204FF0A6
:100B9000000B08900CE010214FF0000B44F004040F
:100BA0004FF00809089103E008214FF0000B08916D
:100BB000C4F30253022B04D001CF0021032B06D033
:100BC00006E0FF1D27F00707F7E8020103E080B207
:100BD000042B00D1C0B24FF0000823072BD5702A98
:100BE00007D0DDF820C08CF0100C5CEA0B0C05D0AF
:100BF0000EE040238DF82430012308E050EA010381
:100C000006D030238DF824308DF825200223984615
:100C1000DDF820C08CF0080C5CEA0B0C0BD150EA1C
:100C2000010301D1630706D530238DF824304FF03E
:100C30000108A9F10109582A04D038A20B9208AA88
:100C40000A920BE03AA2F9E75B46089AFFF7DCFA52
:100C50000B9B9B5C0A9A521E0A92137050EA010287
:100C6000F2D10A98ADEB000000F1200B600702D52D
:100C700024F4803401E04FF00109D94502DDA9EBED
:100C80000B0000E0002000EB0B0141440890AAEBB0
:100C9000010AE00306D4DDE90F232146504600F0A7
:100CA00063F806444FF0000908E009A911F80900AB
:100CB000DDE90F12904709F10109761CC145F4DB0B
:100CC000E0030CD5DDE90F232146504600F04CF837
:100CD000064404E0DDE90F1230209047761C0899A5
:100CE000481E08900029F5DC08E00A980A99007867
:100CF000491C0A91DDE90F129047761CBBF10001F7
:100D0000ABF1010BF1DC21465046DDE90F2300F089
:100D100019F806446D1C1BE60928010030313233F6
:100D20003435363738396162636465660000000027
:100D30003031323334353637383941424344454611
:100D4000000000002DE9F041044600251E4617462C
:100D5000880404D405E039462020B0476D1C641E89
:100D6000F9D52846BDE8F0812DE9F041044600257B
:100D70001E469046C80301D5302700E0202788048E
:100D800004D505E041463846B0476D1C641EF9D5D0
:100D90002846BDE8F08100684FF0FF3202EB4000CA
:100DA000491C084070470160002141608160704724
:100DB00081684068814201D101207047002070475E
:100DC000D0E9002180685140814201D10120704763
:100DD0000020704700B503461846FFF7E9FF08B149
:100DE000002000BD5968D868814203D11846FFF73A
:100DF000D2FFD8601968D868491E084003EB80000C
:100E0000406900BD0268C1680023521E114000EB1A
:100E1000810149698B80C1684160704700B5034614
:100E20001846FFF7CDFF08B1002000BD996818698A
:100E3000814203D11846FFF7AEFF1861196818699F
:100E4000491E084003EB8000406900BD01698160D4
:100E50007047000070B50446064DE1B22846FFF722
:100E6000C9FC80212846FFF721FC0028F9D0204644
:100E700070BD000000100140FFF7C2FC00F086F8D2
:100E800004A10C48FFF722FD0BA0FFF733FD00F093
:100E900021F8FCE7D5E2CAC7D2BBB8F6B4AEBFDAD8
:100EA000BDD3CAD5BBD8CFD4CAB5D1E9A3A1A3A11C
:100EB000A3A10A0000100140BBB6D3ADCAB9D3C389
:100EC000D2B0BBF053544D3332BFAAB7A2B0E50A3B
:100ED0000A0A0A002DE9F0411848FFF77BFF054692
:100EE000280028D0AA88296800208854EF2114A05F
:100EF0002A68FFF7FFFC2F681BA0FFF7FBFC00240C
:100F00000A260DE0395D1FA0FFF7F4FC601C90FB82
:100F1000F6F106FB110010B919A0FFF7EBFC641CF9
:100F2000A888A042EEDC16A0FFF7E4FCBDE8F04183
:100F30000248FFF767BFBDE8F081000024000020F1
:100F40003C3C2D51554555452D44454255472D3E78
:100F50003E205B25645DBDD3CAD5B5BDB5C4CAFD11
:100F6000BEDDA3BA25730A000A3C3C2D51554555F8
:100F7000452D44454255472D41525241592D3E3E43
:100F80000A00000025303278202020002DE9F843A7
:100F900000241D4D002028606860A860E8600221E0
:100FA00005F11000FFF7FFFE05F1100605F12C0713
:100FB0004FF4006807EBC42045F8340006EB8401C9
:100FC00005EBC40048610268B62113460F48FFF7DD
:100FD00091FC55F834004146FFF70BF9641C022CD4
:100FE000E8D3B0680090D6E90023BB2108A0FFF742
:100FF00081FC30690090BB211348F3683268FFF729
:1010000079FCBDE8F883000014000020901000086F
:101010003C3C2D51554555452D44454255472D3EA7
:101020003E205B25645D73697A653D307825782CB8
:1010300020726561643D25642C2077726974653D7A
:1010400025640A0A000000004C1000083C3C2D51A9
:10105000554555452D44454255472D3E3E205B257F
:10106000645D73697A653D307825782C20726561FE
:10107000645F7573696E673D25642C2077726974AF
:10108000655F7573696E673D25640A0A000000009C
:101090003C3C2D51554555452D44454255472D3E27
:1010A0003E205B25645D6E6F64655F646174615BA7
:1010B000695D2E686561643D307825782C0D0A7273
:1010C000785F71756575652E656C656D735B695DBF
:1010D000203D307825780A00F81000080000002034
:1010E00014000000140900080C110008140000206E
:1010F0002C14000024090008000000000102030471
:0C110000010203040607080900000000BB
:04000005080001AD41
:00000001FF
